{
  "_format": "hh-sol-artifact-1",
  "contractName": "GameItems",
  "sourceName": "contracts/GameItems.sol",
  "abi": [
    {
      "inputs": [],
      "stateMutability": "nonpayable",
      "type": "constructor"
    },
    {
      "anonymous": false,
      "inputs": [
        {
          "indexed": true,
          "internalType": "address",
          "name": "account",
          "type": "address"
        },
        {
          "indexed": true,
          "internalType": "address",
          "name": "operator",
          "type": "address"
        },
        {
          "indexed": false,
          "internalType": "bool",
          "name": "approved",
          "type": "bool"
        }
      ],
      "name": "ApprovalForAll",
      "type": "event"
    },
    {
      "anonymous": false,
      "inputs": [
        {
          "indexed": true,
          "internalType": "address",
          "name": "operator",
          "type": "address"
        },
        {
          "indexed": true,
          "internalType": "address",
          "name": "from",
          "type": "address"
        },
        {
          "indexed": true,
          "internalType": "address",
          "name": "to",
          "type": "address"
        },
        {
          "indexed": false,
          "internalType": "uint256[]",
          "name": "ids",
          "type": "uint256[]"
        },
        {
          "indexed": false,
          "internalType": "uint256[]",
          "name": "values",
          "type": "uint256[]"
        }
      ],
      "name": "TransferBatch",
      "type": "event"
    },
    {
      "anonymous": false,
      "inputs": [
        {
          "indexed": true,
          "internalType": "address",
          "name": "operator",
          "type": "address"
        },
        {
          "indexed": true,
          "internalType": "address",
          "name": "from",
          "type": "address"
        },
        {
          "indexed": true,
          "internalType": "address",
          "name": "to",
          "type": "address"
        },
        {
          "indexed": false,
          "internalType": "uint256",
          "name": "id",
          "type": "uint256"
        },
        {
          "indexed": false,
          "internalType": "uint256",
          "name": "value",
          "type": "uint256"
        }
      ],
      "name": "TransferSingle",
      "type": "event"
    },
    {
      "anonymous": false,
      "inputs": [
        {
          "indexed": false,
          "internalType": "string",
          "name": "value",
          "type": "string"
        },
        {
          "indexed": true,
          "internalType": "uint256",
          "name": "id",
          "type": "uint256"
        }
      ],
      "name": "URI",
      "type": "event"
    },
    {
      "inputs": [],
      "name": "GOLD",
      "outputs": [
        {
          "internalType": "uint256",
          "name": "",
          "type": "uint256"
        }
      ],
      "stateMutability": "view",
      "type": "function"
    },
    {
      "inputs": [],
      "name": "SHIELD",
      "outputs": [
        {
          "internalType": "uint256",
          "name": "",
          "type": "uint256"
        }
      ],
      "stateMutability": "view",
      "type": "function"
    },
    {
      "inputs": [],
      "name": "SILVER",
      "outputs": [
        {
          "internalType": "uint256",
          "name": "",
          "type": "uint256"
        }
      ],
      "stateMutability": "view",
      "type": "function"
    },
    {
      "inputs": [],
      "name": "SWORD",
      "outputs": [
        {
          "internalType": "uint256",
          "name": "",
          "type": "uint256"
        }
      ],
      "stateMutability": "view",
      "type": "function"
    },
    {
      "inputs": [],
      "name": "THORS_HAMMER",
      "outputs": [
        {
          "internalType": "uint256",
          "name": "",
          "type": "uint256"
        }
      ],
      "stateMutability": "view",
      "type": "function"
    },
    {
      "inputs": [
        {
          "internalType": "address",
          "name": "account",
          "type": "address"
        },
        {
          "internalType": "uint256",
          "name": "id",
          "type": "uint256"
        }
      ],
      "name": "balanceOf",
      "outputs": [
        {
          "internalType": "uint256",
          "name": "",
          "type": "uint256"
        }
      ],
      "stateMutability": "view",
      "type": "function"
    },
    {
      "inputs": [
        {
          "internalType": "address[]",
          "name": "accounts",
          "type": "address[]"
        },
        {
          "internalType": "uint256[]",
          "name": "ids",
          "type": "uint256[]"
        }
      ],
      "name": "balanceOfBatch",
      "outputs": [
        {
          "internalType": "uint256[]",
          "name": "",
          "type": "uint256[]"
        }
      ],
      "stateMutability": "view",
      "type": "function"
    },
    {
      "inputs": [
        {
          "internalType": "address",
          "name": "account",
          "type": "address"
        },
        {
          "internalType": "address",
          "name": "operator",
          "type": "address"
        }
      ],
      "name": "isApprovedForAll",
      "outputs": [
        {
          "internalType": "bool",
          "name": "",
          "type": "bool"
        }
      ],
      "stateMutability": "view",
      "type": "function"
    },
    {
      "inputs": [
        {
          "internalType": "address",
          "name": "from",
          "type": "address"
        },
        {
          "internalType": "address",
          "name": "to",
          "type": "address"
        },
        {
          "internalType": "uint256[]",
          "name": "ids",
          "type": "uint256[]"
        },
        {
          "internalType": "uint256[]",
          "name": "amounts",
          "type": "uint256[]"
        },
        {
          "internalType": "bytes",
          "name": "data",
          "type": "bytes"
        }
      ],
      "name": "safeBatchTransferFrom",
      "outputs": [],
      "stateMutability": "nonpayable",
      "type": "function"
    },
    {
      "inputs": [
        {
          "internalType": "address",
          "name": "from",
          "type": "address"
        },
        {
          "internalType": "address",
          "name": "to",
          "type": "address"
        },
        {
          "internalType": "uint256",
          "name": "id",
          "type": "uint256"
        },
        {
          "internalType": "uint256",
          "name": "amount",
          "type": "uint256"
        },
        {
          "internalType": "bytes",
          "name": "data",
          "type": "bytes"
        }
      ],
      "name": "safeTransferFrom",
      "outputs": [],
      "stateMutability": "nonpayable",
      "type": "function"
    },
    {
      "inputs": [
        {
          "internalType": "address",
          "name": "operator",
          "type": "address"
        },
        {
          "internalType": "bool",
          "name": "approved",
          "type": "bool"
        }
      ],
      "name": "setApprovalForAll",
      "outputs": [],
      "stateMutability": "nonpayable",
      "type": "function"
    },
    {
      "inputs": [
        {
          "internalType": "bytes4",
          "name": "interfaceId",
          "type": "bytes4"
        }
      ],
      "name": "supportsInterface",
      "outputs": [
        {
          "internalType": "bool",
          "name": "",
          "type": "bool"
        }
      ],
      "stateMutability": "view",
      "type": "function"
    },
    {
      "inputs": [
        {
          "internalType": "uint256",
          "name": "",
          "type": "uint256"
        }
      ],
      "name": "uri",
      "outputs": [
        {
          "internalType": "string",
          "name": "",
          "type": "string"
        }
      ],
      "stateMutability": "view",
      "type": "function"
    }
  ],
  "bytecode": "0x60806040523480156200001157600080fd5b506040518060600160405280602781526020016200351d602791396200003d816200011560201b60201c565b506200006a336000670de0b6b3a7640000604051806020016040528060008152506200012a60201b60201c565b6200009a3360016b033b2e3c9fd0803ce8000000604051806020016040528060008152506200012a60201b60201c565b620000bf3360026001604051806020016040528060008152506200012a60201b60201c565b620000e7336003633b9aca00604051806020016040528060008152506200012a60201b60201c565b6200010f336004633b9aca00604051806020016040528060008152506200012a60201b60201c565b62000f20565b806002908162000126919062000840565b5050565b600073ffffffffffffffffffffffffffffffffffffffff168473ffffffffffffffffffffffffffffffffffffffff16036200019c576040517f08c379a00000000000000000000000000000000000000000000000000000000081526004016200019390620009ae565b60405180910390fd5b6000620001ae6200031160201b60201c565b90506000620001c3856200031960201b60201c565b90506000620001d8856200031960201b60201c565b9050620001f1836000898585896200039a60201b60201c565b8460008088815260200190815260200160002060008973ffffffffffffffffffffffffffffffffffffffff1673ffffffffffffffffffffffffffffffffffffffff1681526020019081526020016000206000828254620002529190620009ff565b925050819055508673ffffffffffffffffffffffffffffffffffffffff16600073ffffffffffffffffffffffffffffffffffffffff168473ffffffffffffffffffffffffffffffffffffffff167fc3d58168c5ae7397731d063d5bbf3d657854427343f4c083240f7aacaa2d0f628989604051620002d292919062000a4b565b60405180910390a4620002f183600089858589620003a260201b60201c565b6200030883600089898989620003aa60201b60201c565b50505050505050565b600033905090565b60606000600167ffffffffffffffff8111156200033b576200033a620005d1565b5b6040519080825280602002602001820160405280156200036a5781602001602082028036833780820191505090505b509050828160008151811062000385576200038462000a78565b5b60200260200101818152505080915050919050565b505050505050565b505050505050565b620003d68473ffffffffffffffffffffffffffffffffffffffff16620005a360201b620008091760201c565b156200059b578373ffffffffffffffffffffffffffffffffffffffff1663f23a6e6187878686866040518663ffffffff1660e01b81526004016200041f95949392919062000b86565b6020604051808303816000875af19250505080156200045e57506040513d601f19601f820116820180604052508101906200045b919062000c56565b60015b6200050f576200046d62000c95565b806308c379a003620004d057506200048462000cf0565b80620004915750620004d2565b806040517f08c379a0000000000000000000000000000000000000000000000000000000008152600401620004c7919062000dcc565b60405180910390fd5b505b6040517f08c379a0000000000000000000000000000000000000000000000000000000008152600401620005069062000e66565b60405180910390fd5b63f23a6e6160e01b7bffffffffffffffffffffffffffffffffffffffffffffffffffffffff1916817bffffffffffffffffffffffffffffffffffffffffffffffffffffffff19161462000599576040517f08c379a0000000000000000000000000000000000000000000000000000000008152600401620005909062000efe565b60405180910390fd5b505b505050505050565b6000808273ffffffffffffffffffffffffffffffffffffffff163b119050919050565b600081519050919050565b7f4e487b7100000000000000000000000000000000000000000000000000000000600052604160045260246000fd5b7f4e487b7100000000000000000000000000000000000000000000000000000000600052602260045260246000fd5b600060028204905060018216806200064857607f821691505b6020821081036200065e576200065d62000600565b5b50919050565b60008190508160005260206000209050919050565b60006020601f8301049050919050565b600082821b905092915050565b600060088302620006c87fffffffffffffffffffffffffffffffffffffffffffffffffffffffffffffffff8262000689565b620006d4868362000689565b95508019841693508086168417925050509392505050565b6000819050919050565b6000819050919050565b6000620007216200071b6200071584620006ec565b620006f6565b620006ec565b9050919050565b6000819050919050565b6200073d8362000700565b620007556200074c8262000728565b84845462000696565b825550505050565b600090565b6200076c6200075d565b6200077981848462000732565b505050565b5b81811015620007a1576200079560008262000762565b6001810190506200077f565b5050565b601f821115620007f057620007ba8162000664565b620007c58462000679565b81016020851015620007d5578190505b620007ed620007e48562000679565b8301826200077e565b50505b505050565b600082821c905092915050565b60006200081560001984600802620007f5565b1980831691505092915050565b600062000830838362000802565b9150826002028217905092915050565b6200084b82620005c6565b67ffffffffffffffff811115620008675762000866620005d1565b5b6200087382546200062f565b62000880828285620007a5565b600060209050601f831160018114620008b85760008415620008a3578287015190505b620008af858262000822565b8655506200091f565b601f198416620008c88662000664565b60005b82811015620008f257848901518255600182019150602085019450602081019050620008cb565b868310156200091257848901516200090e601f89168262000802565b8355505b6001600288020188555050505b505050505050565b600082825260208201905092915050565b7f455243313135353a206d696e7420746f20746865207a65726f2061646472657360008201527f7300000000000000000000000000000000000000000000000000000000000000602082015250565b60006200099660218362000927565b9150620009a38262000938565b604082019050919050565b60006020820190508181036000830152620009c98162000987565b9050919050565b7f4e487b7100000000000000000000000000000000000000000000000000000000600052601160045260246000fd5b600062000a0c82620006ec565b915062000a1983620006ec565b925082820190508082111562000a345762000a33620009d0565b5b92915050565b62000a4581620006ec565b82525050565b600060408201905062000a62600083018562000a3a565b62000a71602083018462000a3a565b9392505050565b7f4e487b7100000000000000000000000000000000000000000000000000000000600052603260045260246000fd5b600073ffffffffffffffffffffffffffffffffffffffff82169050919050565b600062000ad48262000aa7565b9050919050565b62000ae68162000ac7565b82525050565b600081519050919050565b600082825260208201905092915050565b60005b8381101562000b2857808201518184015260208101905062000b0b565b60008484015250505050565b6000601f19601f8301169050919050565b600062000b528262000aec565b62000b5e818562000af7565b935062000b7081856020860162000b08565b62000b7b8162000b34565b840191505092915050565b600060a08201905062000b9d600083018862000adb565b62000bac602083018762000adb565b62000bbb604083018662000a3a565b62000bca606083018562000a3a565b818103608083015262000bde818462000b45565b90509695505050505050565b6000604051905090565b600080fd5b60007fffffffff0000000000000000000000000000000000000000000000000000000082169050919050565b62000c308162000bf9565b811462000c3c57600080fd5b50565b60008151905062000c508162000c25565b92915050565b60006020828403121562000c6f5762000c6e62000bf4565b5b600062000c7f8482850162000c3f565b91505092915050565b60008160e01c9050919050565b600060033d111562000cb75760046000803e62000cb460005162000c88565b90505b90565b62000cc58262000b34565b810181811067ffffffffffffffff8211171562000ce75762000ce6620005d1565b5b80604052505050565b600060443d1062000d885762000d0562000bea565b60043d036004823e80513d602482011167ffffffffffffffff8211171562000d2f57505062000d88565b808201805167ffffffffffffffff81111562000d4f575050505062000d88565b80602083010160043d03850181111562000d6e57505050505062000d88565b62000d7f8260200185018662000cba565b82955050505050505b90565b600062000d9882620005c6565b62000da4818562000927565b935062000db681856020860162000b08565b62000dc18162000b34565b840191505092915050565b6000602082019050818103600083015262000de8818462000d8b565b905092915050565b7f455243313135353a207472616e7366657220746f206e6f6e2d4552433131353560008201527f526563656976657220696d706c656d656e746572000000000000000000000000602082015250565b600062000e4e60348362000927565b915062000e5b8262000df0565b604082019050919050565b6000602082019050818103600083015262000e818162000e3f565b9050919050565b7f455243313135353a204552433131353552656365697665722072656a6563746560008201527f6420746f6b656e73000000000000000000000000000000000000000000000000602082015250565b600062000ee660288362000927565b915062000ef38262000e88565b604082019050919050565b6000602082019050818103600083015262000f198162000ed7565b9050919050565b6125ed8062000f306000396000f3fe608060405234801561001057600080fd5b50600436106100ce5760003560e01c80634e1273f41161008c578063d562e20411610066578063d562e20414610225578063e3e55f0814610243578063e985e9c514610261578063f242432a14610291576100ce565b80634e1273f4146101bb5780635b2725ed146101eb578063a22cb46514610209576100ce565b8062fdd58e146100d357806301ffc9a7146101035780630e89341c1461013357806313dc989f146101635780632eb2c2d6146101815780633e4bee381461019d575b600080fd5b6100ed60048036038101906100e891906114a6565b6102ad565b6040516100fa91906114f5565b60405180910390f35b61011d60048036038101906101189190611568565b610375565b60405161012a91906115b0565b60405180910390f35b61014d600480360381019061014891906115cb565b610457565b60405161015a9190611688565b60405180910390f35b61016b6104eb565b60405161017891906114f5565b60405180910390f35b61019b600480360381019061019691906118a7565b6104f0565b005b6101a5610591565b6040516101b291906114f5565b60405180910390f35b6101d560048036038101906101d09190611a39565b610596565b6040516101e29190611b6f565b60405180910390f35b6101f36106af565b60405161020091906114f5565b60405180910390f35b610223600480360381019061021e9190611bbd565b6106b4565b005b61022d6106ca565b60405161023a91906114f5565b60405180910390f35b61024b6106cf565b60405161025891906114f5565b60405180910390f35b61027b60048036038101906102769190611bfd565b6106d4565b60405161028891906115b0565b60405180910390f35b6102ab60048036038101906102a69190611c3d565b610768565b005b60008073ffffffffffffffffffffffffffffffffffffffff168373ffffffffffffffffffffffffffffffffffffffff160361031d576040517f08c379a000000000000000000000000000000000000000000000000000000000815260040161031490611d46565b60405180910390fd5b60008083815260200190815260200160002060008473ffffffffffffffffffffffffffffffffffffffff1673ffffffffffffffffffffffffffffffffffffffff16815260200190815260200160002054905092915050565b60007fd9b67a26000000000000000000000000000000000000000000000000000000007bffffffffffffffffffffffffffffffffffffffffffffffffffffffff1916827bffffffffffffffffffffffffffffffffffffffffffffffffffffffff1916148061044057507f0e89341c000000000000000000000000000000000000000000000000000000007bffffffffffffffffffffffffffffffffffffffffffffffffffffffff1916827bffffffffffffffffffffffffffffffffffffffffffffffffffffffff1916145b80610450575061044f8261082c565b5b9050919050565b60606002805461046690611d95565b80601f016020809104026020016040519081016040528092919081815260200182805461049290611d95565b80156104df5780601f106104b4576101008083540402835291602001916104df565b820191906000526020600020905b8154815290600101906020018083116104c257829003601f168201915b50505050509050919050565b600381565b6104f8610896565b73ffffffffffffffffffffffffffffffffffffffff168573ffffffffffffffffffffffffffffffffffffffff16148061053e575061053d85610538610896565b6106d4565b5b61057d576040517f08c379a000000000000000000000000000000000000000000000000000000000815260040161057490611e38565b60405180910390fd5b61058a858585858561089e565b5050505050565b600081565b606081518351146105dc576040517f08c379a00000000000000000000000000000000000000000000000000000000081526004016105d390611eca565b60405180910390fd5b6000835167ffffffffffffffff8111156105f9576105f86116af565b5b6040519080825280602002602001820160405280156106275781602001602082028036833780820191505090505b50905060005b84518110156106a45761067485828151811061064c5761064b611eea565b5b602002602001015185838151811061066757610666611eea565b5b60200260200101516102ad565b82828151811061068757610686611eea565b5b6020026020010181815250508061069d90611f48565b905061062d565b508091505092915050565b600481565b6106c66106bf610896565b8383610bbf565b5050565b600281565b600181565b6000600160008473ffffffffffffffffffffffffffffffffffffffff1673ffffffffffffffffffffffffffffffffffffffff16815260200190815260200160002060008373ffffffffffffffffffffffffffffffffffffffff1673ffffffffffffffffffffffffffffffffffffffff16815260200190815260200160002060009054906101000a900460ff16905092915050565b610770610896565b73ffffffffffffffffffffffffffffffffffffffff168573ffffffffffffffffffffffffffffffffffffffff1614806107b657506107b5856107b0610896565b6106d4565b5b6107f5576040517f08c379a00000000000000000000000000000000000000000000000000000000081526004016107ec90611e38565b60405180910390fd5b6108028585858585610d2b565b5050505050565b6000808273ffffffffffffffffffffffffffffffffffffffff163b119050919050565b60007f01ffc9a7000000000000000000000000000000000000000000000000000000007bffffffffffffffffffffffffffffffffffffffffffffffffffffffff1916827bffffffffffffffffffffffffffffffffffffffffffffffffffffffff1916149050919050565b600033905090565b81518351146108e2576040517f08c379a00000000000000000000000000000000000000000000000000000000081526004016108d990612002565b60405180910390fd5b600073ffffffffffffffffffffffffffffffffffffffff168473ffffffffffffffffffffffffffffffffffffffff1603610951576040517f08c379a000000000000000000000000000000000000000000000000000000000815260040161094890612094565b60405180910390fd5b600061095b610896565b905061096b818787878787610fc6565b60005b8451811015610b1c57600085828151811061098c5761098b611eea565b5b6020026020010151905060008583815181106109ab576109aa611eea565b5b60200260200101519050600080600084815260200190815260200160002060008b73ffffffffffffffffffffffffffffffffffffffff1673ffffffffffffffffffffffffffffffffffffffff16815260200190815260200160002054905081811015610a4c576040517f08c379a0000000000000000000000000000000000000000000000000000000008152600401610a4390612126565b60405180910390fd5b81810360008085815260200190815260200160002060008c73ffffffffffffffffffffffffffffffffffffffff1673ffffffffffffffffffffffffffffffffffffffff168152602001908152602001600020819055508160008085815260200190815260200160002060008b73ffffffffffffffffffffffffffffffffffffffff1673ffffffffffffffffffffffffffffffffffffffff1681526020019081526020016000206000828254610b019190612146565b9250508190555050505080610b1590611f48565b905061096e565b508473ffffffffffffffffffffffffffffffffffffffff168673ffffffffffffffffffffffffffffffffffffffff168273ffffffffffffffffffffffffffffffffffffffff167f4a39dc06d4c0dbc64b70af90fd698a233a518aa5d07e595d983b8c0526c8f7fb8787604051610b9392919061217a565b60405180910390a4610ba9818787878787610fce565b610bb7818787878787610fd6565b505050505050565b8173ffffffffffffffffffffffffffffffffffffffff168373ffffffffffffffffffffffffffffffffffffffff1603610c2d576040517f08c379a0000000000000000000000000000000000000000000000000000000008152600401610c2490612223565b60405180910390fd5b80600160008573ffffffffffffffffffffffffffffffffffffffff1673ffffffffffffffffffffffffffffffffffffffff16815260200190815260200160002060008473ffffffffffffffffffffffffffffffffffffffff1673ffffffffffffffffffffffffffffffffffffffff16815260200190815260200160002060006101000a81548160ff0219169083151502179055508173ffffffffffffffffffffffffffffffffffffffff168373ffffffffffffffffffffffffffffffffffffffff167f17307eab39ab6107e8899845ad3d59bd9653f200f220920489ca2b5937696c3183604051610d1e91906115b0565b60405180910390a3505050565b600073ffffffffffffffffffffffffffffffffffffffff168473ffffffffffffffffffffffffffffffffffffffff1603610d9a576040517f08c379a0000000000000000000000000000000000000000000000000000000008152600401610d9190612094565b60405180910390fd5b6000610da4610896565b90506000610db1856111ad565b90506000610dbe856111ad565b9050610dce838989858589610fc6565b600080600088815260200190815260200160002060008a73ffffffffffffffffffffffffffffffffffffffff1673ffffffffffffffffffffffffffffffffffffffff16815260200190815260200160002054905085811015610e65576040517f08c379a0000000000000000000000000000000000000000000000000000000008152600401610e5c90612126565b60405180910390fd5b85810360008089815260200190815260200160002060008b73ffffffffffffffffffffffffffffffffffffffff1673ffffffffffffffffffffffffffffffffffffffff168152602001908152602001600020819055508560008089815260200190815260200160002060008a73ffffffffffffffffffffffffffffffffffffffff1673ffffffffffffffffffffffffffffffffffffffff1681526020019081526020016000206000828254610f1a9190612146565b925050819055508773ffffffffffffffffffffffffffffffffffffffff168973ffffffffffffffffffffffffffffffffffffffff168573ffffffffffffffffffffffffffffffffffffffff167fc3d58168c5ae7397731d063d5bbf3d657854427343f4c083240f7aacaa2d0f628a8a604051610f97929190612243565b60405180910390a4610fad848a8a86868a610fce565b610fbb848a8a8a8a8a611227565b505050505050505050565b505050505050565b505050505050565b610ff58473ffffffffffffffffffffffffffffffffffffffff16610809565b156111a5578373ffffffffffffffffffffffffffffffffffffffff1663bc197c8187878686866040518663ffffffff1660e01b815260040161103b9594939291906122d0565b6020604051808303816000875af192505050801561107757506040513d601f19601f82011682018060405250810190611074919061234d565b60015b61111c57611083612387565b806308c379a0036110df57506110976123a9565b806110a257506110e1565b806040517f08c379a00000000000000000000000000000000000000000000000000000000081526004016110d69190611688565b60405180910390fd5b505b6040517f08c379a0000000000000000000000000000000000000000000000000000000008152600401611113906124ab565b60405180910390fd5b63bc197c8160e01b7bffffffffffffffffffffffffffffffffffffffffffffffffffffffff1916817bffffffffffffffffffffffffffffffffffffffffffffffffffffffff1916146111a3576040517f08c379a000000000000000000000000000000000000000000000000000000000815260040161119a9061253d565b60405180910390fd5b505b505050505050565b60606000600167ffffffffffffffff8111156111cc576111cb6116af565b5b6040519080825280602002602001820160405280156111fa5781602001602082028036833780820191505090505b509050828160008151811061121257611211611eea565b5b60200260200101818152505080915050919050565b6112468473ffffffffffffffffffffffffffffffffffffffff16610809565b156113f6578373ffffffffffffffffffffffffffffffffffffffff1663f23a6e6187878686866040518663ffffffff1660e01b815260040161128c95949392919061255d565b6020604051808303816000875af19250505080156112c857506040513d601f19601f820116820180604052508101906112c5919061234d565b60015b61136d576112d4612387565b806308c379a00361133057506112e86123a9565b806112f35750611332565b806040517f08c379a00000000000000000000000000000000000000000000000000000000081526004016113279190611688565b60405180910390fd5b505b6040517f08c379a0000000000000000000000000000000000000000000000000000000008152600401611364906124ab565b60405180910390fd5b63f23a6e6160e01b7bffffffffffffffffffffffffffffffffffffffffffffffffffffffff1916817bffffffffffffffffffffffffffffffffffffffffffffffffffffffff1916146113f4576040517f08c379a00000000000000000000000000000000000000000000000000000000081526004016113eb9061253d565b60405180910390fd5b505b505050505050565b6000604051905090565b600080fd5b600080fd5b600073ffffffffffffffffffffffffffffffffffffffff82169050919050565b600061143d82611412565b9050919050565b61144d81611432565b811461145857600080fd5b50565b60008135905061146a81611444565b92915050565b6000819050919050565b61148381611470565b811461148e57600080fd5b50565b6000813590506114a08161147a565b92915050565b600080604083850312156114bd576114bc611408565b5b60006114cb8582860161145b565b92505060206114dc85828601611491565b9150509250929050565b6114ef81611470565b82525050565b600060208201905061150a60008301846114e6565b92915050565b60007fffffffff0000000000000000000000000000000000000000000000000000000082169050919050565b61154581611510565b811461155057600080fd5b50565b6000813590506115628161153c565b92915050565b60006020828403121561157e5761157d611408565b5b600061158c84828501611553565b91505092915050565b60008115159050919050565b6115aa81611595565b82525050565b60006020820190506115c560008301846115a1565b92915050565b6000602082840312156115e1576115e0611408565b5b60006115ef84828501611491565b91505092915050565b600081519050919050565b600082825260208201905092915050565b60005b83811015611632578082015181840152602081019050611617565b60008484015250505050565b6000601f19601f8301169050919050565b600061165a826115f8565b6116648185611603565b9350611674818560208601611614565b61167d8161163e565b840191505092915050565b600060208201905081810360008301526116a2818461164f565b905092915050565b600080fd5b7f4e487b7100000000000000000000000000000000000000000000000000000000600052604160045260246000fd5b6116e78261163e565b810181811067ffffffffffffffff82111715611706576117056116af565b5b80604052505050565b60006117196113fe565b905061172582826116de565b919050565b600067ffffffffffffffff821115611745576117446116af565b5b602082029050602081019050919050565b600080fd5b600061176e6117698461172a565b61170f565b9050808382526020820190506020840283018581111561179157611790611756565b5b835b818110156117ba57806117a68882611491565b845260208401935050602081019050611793565b5050509392505050565b600082601f8301126117d9576117d86116aa565b5b81356117e984826020860161175b565b91505092915050565b600080fd5b600067ffffffffffffffff821115611812576118116116af565b5b61181b8261163e565b9050602081019050919050565b82818337600083830152505050565b600061184a611845846117f7565b61170f565b905082815260208101848484011115611866576118656117f2565b5b611871848285611828565b509392505050565b600082601f83011261188e5761188d6116aa565b5b813561189e848260208601611837565b91505092915050565b600080600080600060a086880312156118c3576118c2611408565b5b60006118d18882890161145b565b95505060206118e28882890161145b565b945050604086013567ffffffffffffffff8111156119035761190261140d565b5b61190f888289016117c4565b935050606086013567ffffffffffffffff8111156119305761192f61140d565b5b61193c888289016117c4565b925050608086013567ffffffffffffffff81111561195d5761195c61140d565b5b61196988828901611879565b9150509295509295909350565b600067ffffffffffffffff821115611991576119906116af565b5b602082029050602081019050919050565b60006119b56119b084611976565b61170f565b905080838252602082019050602084028301858111156119d8576119d7611756565b5b835b81811015611a0157806119ed888261145b565b8452602084019350506020810190506119da565b5050509392505050565b600082601f830112611a2057611a1f6116aa565b5b8135611a308482602086016119a2565b91505092915050565b60008060408385031215611a5057611a4f611408565b5b600083013567ffffffffffffffff811115611a6e57611a6d61140d565b5b611a7a85828601611a0b565b925050602083013567ffffffffffffffff811115611a9b57611a9a61140d565b5b611aa7858286016117c4565b9150509250929050565b600081519050919050565b600082825260208201905092915050565b6000819050602082019050919050565b611ae681611470565b82525050565b6000611af88383611add565b60208301905092915050565b6000602082019050919050565b6000611b1c82611ab1565b611b268185611abc565b9350611b3183611acd565b8060005b83811015611b62578151611b498882611aec565b9750611b5483611b04565b925050600181019050611b35565b5085935050505092915050565b60006020820190508181036000830152611b898184611b11565b905092915050565b611b9a81611595565b8114611ba557600080fd5b50565b600081359050611bb781611b91565b92915050565b60008060408385031215611bd457611bd3611408565b5b6000611be28582860161145b565b9250506020611bf385828601611ba8565b9150509250929050565b60008060408385031215611c1457611c13611408565b5b6000611c228582860161145b565b9250506020611c338582860161145b565b9150509250929050565b600080600080600060a08688031215611c5957611c58611408565b5b6000611c678882890161145b565b9550506020611c788882890161145b565b9450506040611c8988828901611491565b9350506060611c9a88828901611491565b925050608086013567ffffffffffffffff811115611cbb57611cba61140d565b5b611cc788828901611879565b9150509295509295909350565b7f455243313135353a2061646472657373207a65726f206973206e6f742061207660008201527f616c6964206f776e657200000000000000000000000000000000000000000000602082015250565b6000611d30602a83611603565b9150611d3b82611cd4565b604082019050919050565b60006020820190508181036000830152611d5f81611d23565b9050919050565b7f4e487b7100000000000000000000000000000000000000000000000000000000600052602260045260246000fd5b60006002820490506001821680611dad57607f821691505b602082108103611dc057611dbf611d66565b5b50919050565b7f455243313135353a2063616c6c6572206973206e6f7420746f6b656e206f776e60008201527f6572206f7220617070726f766564000000000000000000000000000000000000602082015250565b6000611e22602e83611603565b9150611e2d82611dc6565b604082019050919050565b60006020820190508181036000830152611e5181611e15565b9050919050565b7f455243313135353a206163636f756e747320616e6420696473206c656e67746860008201527f206d69736d617463680000000000000000000000000000000000000000000000602082015250565b6000611eb4602983611603565b9150611ebf82611e58565b604082019050919050565b60006020820190508181036000830152611ee381611ea7565b9050919050565b7f4e487b7100000000000000000000000000000000000000000000000000000000600052603260045260246000fd5b7f4e487b7100000000000000000000000000000000000000000000000000000000600052601160045260246000fd5b6000611f5382611470565b91507fffffffffffffffffffffffffffffffffffffffffffffffffffffffffffffffff8203611f8557611f84611f19565b5b600182019050919050565b7f455243313135353a2069647320616e6420616d6f756e7473206c656e6774682060008201527f6d69736d61746368000000000000000000000000000000000000000000000000602082015250565b6000611fec602883611603565b9150611ff782611f90565b604082019050919050565b6000602082019050818103600083015261201b81611fdf565b9050919050565b7f455243313135353a207472616e7366657220746f20746865207a65726f20616460008201527f6472657373000000000000000000000000000000000000000000000000000000602082015250565b600061207e602583611603565b915061208982612022565b604082019050919050565b600060208201905081810360008301526120ad81612071565b9050919050565b7f455243313135353a20696e73756666696369656e742062616c616e636520666f60008201527f72207472616e7366657200000000000000000000000000000000000000000000602082015250565b6000612110602a83611603565b915061211b826120b4565b604082019050919050565b6000602082019050818103600083015261213f81612103565b9050919050565b600061215182611470565b915061215c83611470565b925082820190508082111561217457612173611f19565b5b92915050565b600060408201905081810360008301526121948185611b11565b905081810360208301526121a88184611b11565b90509392505050565b7f455243313135353a2073657474696e6720617070726f76616c2073746174757360008201527f20666f722073656c660000000000000000000000000000000000000000000000602082015250565b600061220d602983611603565b9150612218826121b1565b604082019050919050565b6000602082019050818103600083015261223c81612200565b9050919050565b600060408201905061225860008301856114e6565b61226560208301846114e6565b9392505050565b61227581611432565b82525050565b600081519050919050565b600082825260208201905092915050565b60006122a28261227b565b6122ac8185612286565b93506122bc818560208601611614565b6122c58161163e565b840191505092915050565b600060a0820190506122e5600083018861226c565b6122f2602083018761226c565b81810360408301526123048186611b11565b905081810360608301526123188185611b11565b9050818103608083015261232c8184612297565b90509695505050505050565b6000815190506123478161153c565b92915050565b60006020828403121561236357612362611408565b5b600061237184828501612338565b91505092915050565b60008160e01c9050919050565b600060033d11156123a65760046000803e6123a360005161237a565b90505b90565b600060443d10612436576123bb6113fe565b60043d036004823e80513d602482011167ffffffffffffffff821117156123e3575050612436565b808201805167ffffffffffffffff8111156124015750505050612436565b80602083010160043d03850181111561241e575050505050612436565b61242d826020018501866116de565b82955050505050505b90565b7f455243313135353a207472616e7366657220746f206e6f6e2d4552433131353560008201527f526563656976657220696d706c656d656e746572000000000000000000000000602082015250565b6000612495603483611603565b91506124a082612439565b604082019050919050565b600060208201905081810360008301526124c481612488565b9050919050565b7f455243313135353a204552433131353552656365697665722072656a6563746560008201527f6420746f6b656e73000000000000000000000000000000000000000000000000602082015250565b6000612527602883611603565b9150612532826124cb565b604082019050919050565b600060208201905081810360008301526125568161251a565b9050919050565b600060a082019050612572600083018861226c565b61257f602083018761226c565b61258c60408301866114e6565b61259960608301856114e6565b81810360808301526125ab8184612297565b9050969550505050505056fea26469706673582212203a25c93f19fa4b4cd1ec6c8d23de93a1c22d45a97810e917939b9d26bed6681664736f6c6343000811003368747470733a2f2f67616d652e6578616d706c652f6170692f6974656d2f7b69647d2e6a736f6e",
  "linkReferences": {},
  "deployedLinkReferences": {}
}